{
  "contractName": "SimpleStorage",
  "abi": [
    {
      "constant": true,
      "inputs": [],
      "name": "storedData",
      "outputs": [
        {
          "name": "",
          "type": "uint256"
        }
      ],
      "payable": false,
      "stateMutability": "view",
      "type": "function"
    },
    {
      "constant": false,
      "inputs": [
        {
          "name": "x",
          "type": "uint256"
        }
      ],
      "name": "set",
      "outputs": [],
      "payable": false,
      "stateMutability": "nonpayable",
      "type": "function"
    }
  ],
  "bytecode": "0x608060405234801561001057600080fd5b5060dc8061001f6000396000f3006080604052600436106049576000357c0100000000000000000000000000000000000000000000000000000000900463ffffffff1680632a1afcd914604e57806360fe47b1146076575b600080fd5b348015605957600080fd5b50606060a0565b6040518082815260200191505060405180910390f35b348015608157600080fd5b50609e6004803603810190808035906020019092919050505060a6565b005b60005481565b80600081905550505600a165627a7a72305820dc8b73c1a4430fbf4cb9cdd0f5b8bdfd98677792f8e66e7794f2cd55491a7d560029",
  "source": "pragma solidity ^0.4.0;\n\ncontract SimpleStorage {\n    uint public storedData;\n\n    function set(uint x) public {\n        storedData = x;\n    }\n}",
  "sourcePath": "/Users/dibs/Desktop/consensys_doc/truffle-test-debugging/project-dir/contracts/SimpleStorage.sol",
  "compiler": {
    "name": "solc",
    "version": "0.4.24+commit.e67f0147.Emscripten.clang"
  },
  "schemaVersion": "2.0.1",
  "updatedAt": "2018-11-29T22:09:09.699Z"
}